{"abi":[{"type":"constructor","inputs":[],"stateMutability":"nonpayable"},{"type":"receive","stateMutability":"payable"},{"type":"function","name":"MIN_OPERATOR_STAKE","inputs":[],"outputs":[{"name":"","type":"uint256","internalType":"uint256"}],"stateMutability":"view"},{"type":"function","name":"UPGRADE_INTERFACE_VERSION","inputs":[],"outputs":[{"name":"","type":"string","internalType":"string"}],"stateMutability":"view"},{"type":"function","name":"blueprintId","inputs":[],"outputs":[{"name":"","type":"uint64","internalType":"uint64"}],"stateMutability":"view"},{"type":"function","name":"blueprintOwner","inputs":[],"outputs":[{"name":"","type":"address","internalType":"address"}],"stateMutability":"view"},{"type":"function","name":"canJoin","inputs":[{"name":"","type":"uint64","internalType":"uint64"},{"name":"operator","type":"address","internalType":"address"}],"outputs":[{"name":"","type":"bool","internalType":"bool"}],"stateMutability":"view"},{"type":"function","name":"canLeave","inputs":[{"name":"","type":"uint64","internalType":"uint64"},{"name":"","type":"address","internalType":"address"}],"outputs":[{"name":"","type":"bool","internalType":"bool"}],"stateMutability":"view"},{"type":"function","name":"configureModel","inputs":[{"name":"model","type":"string","internalType":"string"},{"name":"dimensions","type":"uint32","internalType":"uint32"},{"name":"maxSequenceLength","type":"uint32","internalType":"uint32"},{"name":"pricePer1kTokens","type":"uint64","internalType":"uint64"},{"name":"minGpuVramMib","type":"uint32","internalType":"uint32"}],"outputs":[],"stateMutability":"nonpayable"},{"type":"function","name":"disableModel","inputs":[{"name":"model","type":"string","internalType":"string"}],"outputs":[],"stateMutability":"nonpayable"},{"type":"function","name":"getAggregationThreshold","inputs":[{"name":"","type":"uint64","internalType":"uint64"},{"name":"","type":"uint8","internalType":"uint8"}],"outputs":[{"name":"","type":"uint16","internalType":"uint16"},{"name":"","type":"uint8","internalType":"uint8"}],"stateMutability":"pure"},{"type":"function","name":"getExitConfig","inputs":[{"name":"","type":"uint64","internalType":"uint64"}],"outputs":[{"name":"","type":"bool","internalType":"bool"},{"name":"","type":"uint64","internalType":"uint64"},{"name":"","type":"uint64","internalType":"uint64"},{"name":"","type":"bool","internalType":"bool"}],"stateMutability":"pure"},{"type":"function","name":"getHeartbeatInterval","inputs":[{"name":"","type":"uint64","internalType":"uint64"}],"outputs":[{"name":"","type":"bool","internalType":"bool"},{"name":"","type":"uint64","internalType":"uint64"}],"stateMutability":"pure"},{"type":"function","name":"getHeartbeatThreshold","inputs":[{"name":"","type":"uint64","internalType":"uint64"}],"outputs":[{"name":"useDefault","type":"bool","internalType":"bool"},{"name":"threshold","type":"uint8","internalType":"uint8"}],"stateMutability":"view"},{"type":"function","name":"getMinOperatorStake","inputs":[],"outputs":[{"name":"","type":"bool","internalType":"bool"},{"name":"","type":"uint256","internalType":"uint256"}],"stateMutability":"pure"},{"type":"function","name":"getModelConfig","inputs":[{"name":"model","type":"string","internalType":"string"}],"outputs":[{"name":"","type":"tuple","internalType":"struct EmbeddingBSM.ModelConfig","components":[{"name":"dimensions","type":"uint32","internalType":"uint32"},{"name":"maxSequenceLength","type":"uint32","internalType":"uint32"},{"name":"pricePer1kTokens","type":"uint64","internalType":"uint64"},{"name":"minGpuVramMib","type":"uint32","internalType":"uint32"},{"name":"enabled","type":"bool","internalType":"bool"}]}],"stateMutability":"view"},{"type":"function","name":"getNonPaymentTerminationPolicy","inputs":[{"name":"","type":"uint64","internalType":"uint64"}],"outputs":[{"name":"useDefault","type":"bool","internalType":"bool"},{"name":"graceIntervals","type":"uint64","internalType":"uint64"}],"stateMutability":"view"},{"type":"function","name":"getOperatorCount","inputs":[],"outputs":[{"name":"","type":"uint256","internalType":"uint256"}],"stateMutability":"view"},{"type":"function","name":"getOperatorDimensions","inputs":[{"name":"operator","type":"address","internalType":"address"}],"outputs":[{"name":"","type":"uint32","internalType":"uint32"}],"stateMutability":"view"},{"type":"function","name":"getOperatorPricing","inputs":[{"name":"operator","type":"address","internalType":"address"}],"outputs":[{"name":"pricePer1kTokens","type":"uint64","internalType":"uint64"},{"name":"dimensions","type":"uint32","internalType":"uint32"},{"name":"endpoint","type":"string","internalType":"string"}],"stateMutability":"view"},{"type":"function","name":"getOperators","inputs":[],"outputs":[{"name":"","type":"address[]","internalType":"address[]"}],"stateMutability":"view"},{"type":"function","name":"getRequiredResultCount","inputs":[{"name":"","type":"uint64","internalType":"uint64"},{"name":"","type":"uint8","internalType":"uint8"}],"outputs":[{"name":"","type":"uint32","internalType":"uint32"}],"stateMutability":"view"},{"type":"function","name":"getSlashingWindow","inputs":[{"name":"","type":"uint64","internalType":"uint64"}],"outputs":[{"name":"useDefault","type":"bool","internalType":"bool"},{"name":"window","type":"uint64","internalType":"uint64"}],"stateMutability":"view"},{"type":"function","name":"initialize","inputs":[{"name":"_tsUSD","type":"address","internalType":"address"}],"outputs":[],"stateMutability":"nonpayable"},{"type":"function","name":"isOperatorActive","inputs":[{"name":"operator","type":"address","internalType":"address"}],"outputs":[{"name":"","type":"bool","internalType":"bool"}],"stateMutability":"view"},{"type":"function","name":"modelConfigs","inputs":[{"name":"","type":"bytes32","internalType":"bytes32"}],"outputs":[{"name":"dimensions","type":"uint32","internalType":"uint32"},{"name":"maxSequenceLength","type":"uint32","internalType":"uint32"},{"name":"pricePer1kTokens","type":"uint64","internalType":"uint64"},{"name":"minGpuVramMib","type":"uint32","internalType":"uint32"},{"name":"enabled","type":"bool","internalType":"bool"}],"stateMutability":"view"},{"type":"function","name":"onAggregatedResult","inputs":[{"name":"","type":"uint64","internalType":"uint64"},{"name":"","type":"uint8","internalType":"uint8"},{"name":"","type":"uint64","internalType":"uint64"},{"name":"","type":"bytes","internalType":"bytes"},{"name":"","type":"uint256","internalType":"uint256"},{"name":"","type":"uint256[2]","internalType":"uint256[2]"},{"name":"","type":"uint256[4]","internalType":"uint256[4]"}],"outputs":[],"stateMutability":"nonpayable"},{"type":"function","name":"onApprove","inputs":[{"name":"","type":"address","internalType":"address"},{"name":"","type":"uint64","internalType":"uint64"},{"name":"","type":"uint8","internalType":"uint8"}],"outputs":[],"stateMutability":"payable"},{"type":"function","name":"onBlueprintCreated","inputs":[{"name":"_blueprintId","type":"uint64","internalType":"uint64"},{"name":"owner","type":"address","internalType":"address"},{"name":"_tangleCore","type":"address","internalType":"address"}],"outputs":[],"stateMutability":"nonpayable"},{"type":"function","name":"onExitCanceled","inputs":[{"name":"","type":"uint64","internalType":"uint64"},{"name":"","type":"address","internalType":"address"}],"outputs":[],"stateMutability":"nonpayable"},{"type":"function","name":"onExitScheduled","inputs":[{"name":"","type":"uint64","internalType":"uint64"},{"name":"","type":"address","internalType":"address"},{"name":"","type":"uint64","internalType":"uint64"}],"outputs":[],"stateMutability":"nonpayable"},{"type":"function","name":"onJobCall","inputs":[{"name":"serviceId","type":"uint64","internalType":"uint64"},{"name":"","type":"uint8","internalType":"uint8"},{"name":"jobCallId","type":"uint64","internalType":"uint64"},{"name":"inputs","type":"bytes","internalType":"bytes"}],"outputs":[],"stateMutability":"payable"},{"type":"function","name":"onJobResult","inputs":[{"name":"serviceId","type":"uint64","internalType":"uint64"},{"name":"","type":"uint8","internalType":"uint8"},{"name":"jobCallId","type":"uint64","internalType":"uint64"},{"name":"operator","type":"address","internalType":"address"},{"name":"","type":"bytes","internalType":"bytes"},{"name":"outputs","type":"bytes","internalType":"bytes"}],"outputs":[],"stateMutability":"payable"},{"type":"function","name":"onOperatorJoined","inputs":[{"name":"","type":"uint64","internalType":"uint64"},{"name":"","type":"address","internalType":"address"},{"name":"","type":"uint16","internalType":"uint16"}],"outputs":[],"stateMutability":"nonpayable"},{"type":"function","name":"onOperatorLeft","inputs":[{"name":"","type":"uint64","internalType":"uint64"},{"name":"","type":"address","internalType":"address"}],"outputs":[],"stateMutability":"nonpayable"},{"type":"function","name":"onRegister","inputs":[{"name":"operator","type":"address","internalType":"address"},{"name":"registrationInputs","type":"bytes","internalType":"bytes"}],"outputs":[],"stateMutability":"payable"},{"type":"function","name":"onReject","inputs":[{"name":"","type":"address","internalType":"address"},{"name":"","type":"uint64","internalType":"uint64"}],"outputs":[],"stateMutability":"nonpayable"},{"type":"function","name":"onRequest","inputs":[{"name":"","type":"uint64","internalType":"uint64"},{"name":"","type":"address","internalType":"address"},{"name":"","type":"address[]","internalType":"address[]"},{"name":"","type":"bytes","internalType":"bytes"},{"name":"","type":"uint64","internalType":"uint64"},{"name":"paymentAsset","type":"address","internalType":"address"},{"name":"","type":"uint256","internalType":"uint256"}],"outputs":[],"stateMutability":"payable"},{"type":"function","name":"onServiceInitialized","inputs":[{"name":"","type":"uint64","internalType":"uint64"},{"name":"","type":"uint64","internalType":"uint64"},{"name":"serviceId","type":"uint64","internalType":"uint64"},{"name":"","type":"address","internalType":"address"},{"name":"","type":"address[]","internalType":"address[]"},{"name":"","type":"uint64","internalType":"uint64"}],"outputs":[],"stateMutability":"nonpayable"},{"type":"function","name":"onServiceTermination","inputs":[{"name":"","type":"uint64","internalType":"uint64"},{"name":"","type":"address","internalType":"address"}],"outputs":[],"stateMutability":"nonpayable"},{"type":"function","name":"onSlash","inputs":[{"name":"","type":"uint64","internalType":"uint64"},{"name":"","type":"bytes","internalType":"bytes"},{"name":"","type":"uint8","internalType":"uint8"}],"outputs":[],"stateMutability":"nonpayable"},{"type":"function","name":"onUnappliedSlash","inputs":[{"name":"","type":"uint64","internalType":"uint64"},{"name":"","type":"bytes","internalType":"bytes"},{"name":"","type":"uint8","internalType":"uint8"}],"outputs":[],"stateMutability":"nonpayable"},{"type":"function","name":"onUnregister","inputs":[{"name":"operator","type":"address","internalType":"address"}],"outputs":[],"stateMutability":"nonpayable"},{"type":"function","name":"onUpdatePreferences","inputs":[{"name":"operator","type":"address","internalType":"address"},{"name":"newPreferences","type":"bytes","internalType":"bytes"}],"outputs":[],"stateMutability":"payable"},{"type":"function","name":"operatorCaps","inputs":[{"name":"","type":"address","internalType":"address"}],"outputs":[{"name":"model","type":"string","internalType":"string"},{"name":"embeddingDimensions","type":"uint32","internalType":"uint32"},{"name":"maxSequenceLength","type":"uint32","internalType":"uint32"},{"name":"gpuCount","type":"uint32","internalType":"uint32"},{"name":"totalVramMib","type":"uint32","internalType":"uint32"},{"name":"gpuModel","type":"string","internalType":"string"},{"name":"endpoint","type":"string","internalType":"string"},{"name":"active","type":"bool","internalType":"bool"}],"stateMutability":"view"},{"type":"function","name":"proxiableUUID","inputs":[],"outputs":[{"name":"","type":"bytes32","internalType":"bytes32"}],"stateMutability":"view"},{"type":"function","name":"queryDeveloperPaymentAddress","inputs":[{"name":"","type":"uint64","internalType":"uint64"}],"outputs":[{"name":"","type":"address","internalType":"address payable"}],"stateMutability":"view"},{"type":"function","name":"queryDisputeOrigin","inputs":[{"name":"","type":"uint64","internalType":"uint64"}],"outputs":[{"name":"","type":"address","internalType":"address"}],"stateMutability":"view"},{"type":"function","name":"queryIsPaymentAssetAllowed","inputs":[{"name":"serviceId","type":"uint64","internalType":"uint64"},{"name":"asset","type":"address","internalType":"address"}],"outputs":[{"name":"","type":"bool","internalType":"bool"}],"stateMutability":"view"},{"type":"function","name":"querySlashingOrigin","inputs":[{"name":"","type":"uint64","internalType":"uint64"}],"outputs":[{"name":"","type":"address","internalType":"address"}],"stateMutability":"view"},{"type":"function","name":"requiresAggregation","inputs":[{"name":"","type":"uint64","internalType":"uint64"},{"name":"","type":"uint8","internalType":"uint8"}],"outputs":[{"name":"","type":"bool","internalType":"bool"}],"stateMutability":"view"},{"type":"function","name":"tangleCore","inputs":[],"outputs":[{"name":"","type":"address","internalType":"address"}],"stateMutability":"view"},{"type":"function","name":"tsUSD","inputs":[],"outputs":[{"name":"","type":"address","internalType":"address"}],"stateMutability":"view"},{"type":"function","name":"upgradeToAndCall","inputs":[{"name":"newImplementation","type":"address","internalType":"address"},{"name":"data","type":"bytes","internalType":"bytes"}],"outputs":[],"stateMutability":"payable"},{"type":"event","name":"EmbeddingJobSubmitted","inputs":[{"name":"serviceId","type":"uint64","indexed":true,"internalType":"uint64"},{"name":"jobCallId","type":"uint64","indexed":true,"internalType":"uint64"},{"name":"inputCount","type":"uint32","indexed":false,"internalType":"uint32"}],"anonymous":false},{"type":"event","name":"EmbeddingResultSubmitted","inputs":[{"name":"serviceId","type":"uint64","indexed":true,"internalType":"uint64"},{"name":"jobCallId","type":"uint64","indexed":true,"internalType":"uint64"},{"name":"totalTokens","type":"uint32","indexed":false,"internalType":"uint32"}],"anonymous":false},{"type":"event","name":"Initialized","inputs":[{"name":"version","type":"uint64","indexed":false,"internalType":"uint64"}],"anonymous":false},{"type":"event","name":"ModelConfigured","inputs":[{"name":"model","type":"string","indexed":false,"internalType":"string"},{"name":"dimensions","type":"uint32","indexed":false,"internalType":"uint32"},{"name":"maxSequenceLength","type":"uint32","indexed":false,"internalType":"uint32"},{"name":"pricePer1kTokens","type":"uint64","indexed":false,"internalType":"uint64"}],"anonymous":false},{"type":"event","name":"OperatorRegistered","inputs":[{"name":"operator","type":"address","indexed":true,"internalType":"address"},{"name":"model","type":"string","indexed":false,"internalType":"string"},{"name":"dimensions","type":"uint32","indexed":false,"internalType":"uint32"},{"name":"maxSeqLen","type":"uint32","indexed":false,"internalType":"uint32"},{"name":"gpuCount","type":"uint32","indexed":false,"internalType":"uint32"},{"name":"totalVramMib","type":"uint32","indexed":false,"internalType":"uint32"}],"anonymous":false},{"type":"event","name":"Upgraded","inputs":[{"name":"implementation","type":"address","indexed":true,"internalType":"address"}],"anonymous":false},{"type":"error","name":"AddressEmptyCode","inputs":[{"name":"target","type":"address","internalType":"address"}]},{"type":"error","name":"AlreadyInitialized","inputs":[]},{"type":"error","name":"ERC1967InvalidImplementation","inputs":[{"name":"implementation","type":"address","internalType":"address"}]},{"type":"error","name":"ERC1967NonPayable","inputs":[]},{"type":"error","name":"FailedCall","inputs":[]},{"type":"error","name":"InsufficientGpuCapability","inputs":[{"name":"required","type":"uint32","internalType":"uint32"},{"name":"provided","type":"uint32","internalType":"uint32"}]},{"type":"error","name":"InvalidEmbeddingDimensions","inputs":[{"name":"expected","type":"uint32","internalType":"uint32"},{"name":"provided","type":"uint32","internalType":"uint32"}]},{"type":"error","name":"InvalidInitialization","inputs":[]},{"type":"error","name":"InvalidPaymentAsset","inputs":[{"name":"asset","type":"address","internalType":"address"}]},{"type":"error","name":"ModelNotSupported","inputs":[{"name":"model","type":"string","internalType":"string"}]},{"type":"error","name":"NotInitializing","inputs":[]},{"type":"error","name":"OnlyBlueprintOwnerAllowed","inputs":[{"name":"caller","type":"address","internalType":"address"},{"name":"owner","type":"address","internalType":"address"}]},{"type":"error","name":"OnlyTangleAllowed","inputs":[{"name":"caller","type":"address","internalType":"address"},{"name":"tangle","type":"address","internalType":"address"}]},{"type":"error","name":"OperatorNotRegistered","inputs":[{"name":"operator","type":"address","internalType":"address"}]},{"type":"error","name":"SequenceLengthExceeded","inputs":[{"name":"maxAllowed","type":"uint32","internalType":"uint32"},{"name":"provided","type":"uint32","internalType":"uint32"}]},{"type":"error","name":"UUPSUnauthorizedCallContext","inputs":[]},{"type":"error","name":"UUPSUnsupportedProxiableUUID","inputs":[{"name":"slot","type":"bytes32","internalType":"bytes32"}]}],"bytecode":{"object":"0x60a080604052346100e857306080527ff0c57e16840df040f15088dc2f81fe391c3923bec73e23a9662efc9c229c6a005460ff8160401c166100d9576002600160401b03196001600160401b03821601610073575b60405161249490816100ed823960805181818161140d01526114af0152f35b6001600160401b0319166001600160401b039081177ff0c57e16840df040f15088dc2f81fe391c3923bec73e23a9662efc9c229c6a005581527fc7f505b2f371ae2175ee4913f4499e1f2633a7b5936321eed1cdaeb6115181d290602090a15f80610054565b63f92ee8a960e01b5f5260045ffd5b5f80fdfe608080604052600436101561001c575b50361561001a575f80fd5b005b5f3560e01c90816268080b14611d5e5750806308179f3514611d2c5780630824bd4614611ca15780630881898f14610d7a5780630b6535d714611c0657806313e7780814611a4257806314b4df4c14610d94578063151a4576146119f7578063158bb2eb1461199057806319ed5bb2146119635780631a4a7c61146119465780631a74f8ae1461188257806325fcc64e1461185057806327a099d8146117915780632f26c96c146117405780633fdadfcc14610d995780634299b960146116d357806345533359146116ab5780634c443e04146116895780634f1ef2861461146157806352d1902d146113fb5780635440662c14610b3857806354dce6c2146113d35780635a936dc6146113ac57806367793cc614610d9e57806371e8e85d14610d9957806374ceeb5514610d945780637e14b91914610d7a57806382a1ece414610ceb57806392cbb78e14610cc1578063965d231b14610b385780639838caa314610b925780639aa26a9214610b5a578063a24e8a9014610b38578063ad3cb1cc14610aed578063b159eb3414610ac7578063b47242e814610aa0578063c28cd812146109e4578063c40c80d1146108c8578063c4d66de814610759578063c727472f1461066b578063c9cd4a1814610649578063cb110dc11461054a578063d2672ed41461050f578063d856433a146104ec578063e0559c63146104b8578063e390fcdb1461048c578063e518de761461045e578063eb47353314610419578063f58e2066146102b7578063f84076621461028f5763fe0b15e714610263575f61000f565b3461028b575f36600319011261028b5760206001600160401b035f5460a01c16604051908152f35b5f80fd5b3461028b575f36600319011261028b576001546040516001600160a01b039091168152602090f35b6102c036611fbb565b6102c86121d3565b810160208282031261028b5781356001600160401b03811161028b576102ee92016120e7565b9060018060a01b03165f526004602052600360405f200181516001600160401b0381116104055761031f825461202e565b601f81116103c0575b50602092601f821160011461036457928192935f92610359575b50505f19600383901b1c191660019190911b179055005b015190508380610342565b601f19821693835f52805f20915f5b8681106103a85750836001959610610390575b505050811b019055005b01515f1960f88460031b161c19169055838080610386565b91926020600181928685015181550194019201610373565b825f5260205f20601f830160051c810191602084106103fb575b601f0160051c01905b8181106103f05750610328565b5f81556001016103e3565b90915081906103da565b634e487b7160e01b5f52604160045260245ffd5b3461028b57602036600319011261028b576020610454610437611ea9565b60018060a01b03165f52600460205260ff600460405f2001541690565b6040519015158152f35b3461028b57604036600319011261028b57610477611d87565b50610480611e93565b50602060405160018152f35b3461028b57604036600319011261028b5760206104546104aa611d87565b6104b2611e93565b90612105565b3461028b57606036600319011261028b576104d1611d87565b506104da611e93565b506104e3611d9d565b5061001a6121d3565b3461028b575f36600319011261028b5760206040516802b5e3af16b18800008152f35b3461028b57602036600319011261028b57610528611d87565b5060806040515f8152610e106020820152610e10604082015260016060820152f35b3461028b57602036600319011261028b576001600160a01b0361056b611ea9565b165f5260046020526105fa60405f20604051906105938261058c8184612066565b0383611f49565b61063d60018201549161062f604051936105bb856105b48160028701612066565b0386611f49565b60ff6004604051946105db866105d48160038501612066565b0387611f49565b0154169463ffffffff6040519889986101008a526101008a0190611f0a565b9281811660208a0152818160201c1660408a0152818160401c1660608a015260601c16608088015286820360a0880152611f0a565b9084820360c0860152611f0a565b90151560e08301520390f35b3461028b57604036600319011261028b57610662611ea9565b506104e3611db3565b3461028b57602036600319011261028b576004356001600160401b03811161028b5761069e6106cb913690600401611df5565b5f60806040516106ad81611f2e565b82815282602082015282604082015282606082015201523691611f85565b602081519101205f52600560205260a060405f20604051906106ec82611f2e565b5463ffffffff808216928381526001600160401b0360208201838560201c168152836040840191838760401c16835260ff60806060870196848a831c16885201978a1c16151587526040519788525116602087015251166040850152511660608301525115156080820152f35b3461028b57602036600319011261028b57610772611ea9565b5f8051602061243f8339815191525460ff8160401c1615906001600160401b038116801590816108c0575b60011490816108b6575b1590816108ad575b5061089e5767ffffffffffffffff1981166001175f8051602061243f8339815191525581610872575b505f8051602061243f833981519152549160ff8360401c16156108635760018060a01b03166bffffffffffffffffffffffff60a01b600354161760035561081b57005b68ff000000000000000019165f8051602061243f833981519152557fc7f505b2f371ae2175ee4913f4499e1f2633a7b5936321eed1cdaeb6115181d2602060405160018152a1005b631afcd79f60e31b5f5260045ffd5b68ffffffffffffffffff191668010000000000000001175f8051602061243f83398151915255826107d8565b63f92ee8a960e01b5f5260045ffd5b905015846107af565b303b1591506107a7565b83915061079d565b60c036600319011261028b576108dc611d87565b6108e4611e22565b506108ed611d9d565b6108f5611ebf565b906084356001600160401b03811161028b57610915903690600401611df5565b505060a4356001600160401b03811161028b57610936903690600401611df5565b90926109406121d3565b6001600160a01b03165f818152600460208190526040909120015460ff16156109d25750826060918101031261028b5760206001600160401b03807f63e70d4c0416d5670df1d1b45455c0e3a3ca162ecd1219ae3cffcd8f4efc4830936109a686611ed5565b506109be60406109b7868901611ed5565b9701611ed5565b5063ffffffff6040519616865216941692a3005b63bd62013360e01b5f5260045260245ffd5b60e036600319011261028b576109f8611d87565b50610a01611e93565b506044356001600160401b03811161028b57610a21903690600401611ffe565b50506064356001600160401b03811161028b57610a42903690600401611df5565b5050610a4c611ddf565b5060a4356001600160a01b0381169081900361028b57610a6a6121d3565b6003546001600160a01b031681141580610a97575b610a8557005b6395de5f2960e01b5f5260045260245ffd5b50801515610a7f565b3461028b57604036600319011261028b57610ab9611d87565b506020610454610437611e93565b606036600319011261028b57610adb611ea9565b50610ae4611db3565b506104e3611e32565b3461028b575f36600319011261028b57610b34604051610b0e604082611f49565b60058152640352e302e360dc1b6020820152604051918291602083526020830190611f0a565b0390f35b3461028b57604036600319011261028b57610b51611d87565b506104e3611e93565b3461028b57606036600319011261028b57610b73611d87565b50610b7c611e93565b5060443561ffff81160361028b5761001a6121d3565b608036600319011261028b57610ba6611d87565b610bae611e22565b50610bb7611d9d565b6064356001600160401b03811161028b57610bd6903690600401611df5565b610bde6121d3565b81019060208183031261028b578035906001600160401b03821161028b57019080601f8301121561028b578135916001600160401b038311610405578260051b9060405193610c306020840186611f49565b84526020808501928201019183831161028b5760208201905b838210610c945787877fec23fcd45cd5fd5b3995bdd674dc5621a625ca2d34b9eaa31ba30b528205f48f60206001600160401b038063ffffffff8c51169460405195865216941692a3005b81356001600160401b03811161028b57602091610cb6878480948801016120e7565b815201910190610c49565b3461028b57602036600319011261028b57610cda611d87565b5060408051600181525f6020820152f35b3461028b5760c036600319011261028b57610d04611d87565b50610d0d611db3565b50610d16611d9d565b610d1e611ebf565b50608435906001600160401b03821161028b57610d4261001a923690600401611ffe565b5050610d4c611dc9565b50610d556121d3565b6001600160401b0360018060a01b036003541691165f52600260205260405f2061236c565b3461028b57610d8836611e42565b5050505061001a6121d3565b611ee6565b610cc1565b610da736611fbb565b610daf6121d3565b81019160e08284031261028b5781356001600160401b03811161028b5783610dd89184016120e7565b91610de560208201611ed5565b91610df260408301611ed5565b94610dff60608401611ed5565b91610e0c60808501611ed5565b9360a08101356001600160401b03811161028b5783610e2c9183016120e7565b9260c08201356001600160401b03811161028b57610e4a92016120e7565b865160208801205f52600560205260405f205460ff8160a01c16156113865763ffffffff80821697169680880361136f575063ffffffff809160801c1695169480861061135857506040519061010082018281106001600160401b0382111761040557604052878252602082019387855263ffffffff604084019a1694858b5263ffffffff60608501971696878152608085019089825260a0860193845260c0860194855260e08601966001885260018060a01b03169c8d5f52600460205260405f2096518051906001600160401b03821161040557610f2a895461202e565b601f8111611313575b50602090601f83116001146112a7579180610fa1949263ffffffff945f9261129c575b50508160011b915f199060031b1c19161789555b818060018b019751161682198754161786555116849067ffffffff0000000082549160201b169067ffffffff000000001916179055565b51906bffffffff000000000000000083549163ffffffff60601b905160601b169260401b169067ffffffffffffffff60401b1916171790556002830190518051906001600160401b038211610405578190610ffc845461202e565b601f811161124c575b50602090601f83116001146111e9575f926111de575b50508160011b915f199060031b1c19161790555b51805160038301916001600160401b0382116104055761104f835461202e565b601f8111611199575b50602090601f83116001146111085792826004937f6e9d5e9e2fc85fe78d53f11b3950e0c1c76a0cffd584aecd204336cd48a790a69c9a9896936110e39c9a98965f926110fd575b50508160011b915f199060031b1c19161790555b019051151560ff801983541691161790556110ce88612317565b5060405195869560a0875260a0870190611f0a565b9360208601526040850152606084015260808301520390a2005b015190508e806110a0565b90601f19831691845f52815f20925f5b8181106111815750937f6e9d5e9e2fc85fe78d53f11b3950e0c1c76a0cffd584aecd204336cd48a790a69c9a9896936110e39c9a9896936001938360049810611169575b505050811b0190556110b4565b01515f1960f88460031b161c191690558e808061115c565b92936020600181928786015181550195019301611118565b835f5260205f20601f840160051c810191602085106111d4575b601f0160051c01905b8181106111c95750611058565b5f81556001016111bc565b90915081906111b3565b015190508c8061101b565b5f8581528281209350601f198516905b818110611234575090846001959493921061121c575b505050811b01905561102f565b01515f1960f88460031b161c191690558c808061120f565b929360206001819287860151815501950193016111f9565b909150835f5260205f20601f840160051c81019160208510611292575b90601f859493920160051c01905b8181106112845750611005565b5f8155849350600101611277565b9091508190611269565b015190505f80610f56565b90601f198316918a5f52815f20925f5b8181106112fb575092600192859263ffffffff96610fa19896106112e3575b505050811b018955610f6a565b01515f1960f88460031b161c191690555f80806112d6565b929360206001819287860151815501950193016112b7565b895f5260205f20601f840160051c8101916020851061134e575b601f0160051c01905b8181106113435750610f33565b5f8155600101611336565b909150819061132d565b8590630245992160e21b5f5260045260245260445ffd5b8790632683194160e11b5f5260045260245260445ffd5b604051633d4e53e560e11b815260206004820152806113a8602482018b611f0a565b0390fd5b3461028b575f36600319011261028b575f546040516001600160a01b039091168152602090f35b3461028b575f36600319011261028b57604080515f81526802b5e3af16b18800006020820152f35b3461028b575f36600319011261028b577f00000000000000000000000000000000000000000000000000000000000000006001600160a01b031630036114525760206040515f8051602061241f8339815191528152f35b63703e46dd60e11b5f5260045ffd5b604036600319011261028b57611475611ea9565b6024356001600160401b03811161028b573660238201121561028b576114a5903690602481600401359101611f85565b6001600160a01b037f000000000000000000000000000000000000000000000000000000000000000016308114908115611667575b50611452576001546001600160a01b03163381900361165157506040516352d1902d60e01b81526001600160a01b0383169290602081600481875afa5f918161161d575b506115365783634c9c8ce360e01b5f5260045260245ffd5b805f8051602061241f83398151915285920361160b5750813b156115f9575f8051602061241f83398151915280546001600160a01b031916821790557fbc7cd75a20ee27fd9adebab32041f755214dbc6bffa90cc0225b39da2e5c2d3b5f80a28151156115e1575f8083602061001a95519101845af43d156115d9573d916115bd83611f6a565b926115cb6040519485611f49565b83523d5f602085013e6123c0565b6060916123c0565b5050346115ea57005b63b398979f60e01b5f5260045ffd5b634c9c8ce360e01b5f5260045260245ffd5b632a87526960e21b5f5260045260245ffd5b9091506020813d602011611649575b8161163960209383611f49565b8101031261028b5751908561151e565b3d915061162c565b630b3dddb760e01b5f523360045260245260445ffd5b5f8051602061241f833981519152546001600160a01b031614159050836114da565b3461028b57604036600319011261028b576116a2611d87565b50610480611e22565b3461028b575f36600319011261028b576003546040516001600160a01b039091168152602090f35b3461028b57602036600319011261028b576004355f52600560205260a060405f205460ff6040519163ffffffff8116835263ffffffff8160201c1660208401526001600160401b038160401c16604084015263ffffffff8160801c166060840152831c1615156080820152f35b3461028b57602036600319011261028b576001600160a01b03611761611ea9565b16805f52600460205260405f209060ff600483015416156109d257602063ffffffff600184015416604051908152f35b3461028b575f36600319011261028b576040518060206006549283815201809260065f527ff652222313e28459528d920b65115c16c04f3efc82aaedc97be59f3f377c0d3f905f5b81811061183a57505050816117ef910382611f49565b604051918291602083019060208452518091526040830191905f5b818110611818575050500390f35b82516001600160a01b031684528594506020938401939092019160010161180a565b82548452602090930192600192830192016117d9565b3461028b57604036600319011261028b57611869611d87565b50611872611e22565b50604080515f81525f6020820152f35b3461028b57602036600319011261028b576001600160a01b036118a3611ea9565b16805f52600460205260405f2060ff600482015416156119335763ffffffff906040516118db816118d48185612066565b0382611f49565b602081519101205f526005602052610b34600361190760405f2054936118d46040518094819301612066565b60405193836001600160401b03869560401c168552166020840152606060408401526060830190611f0a565b5063bd62013360e01b5f5260045260245ffd5b3461028b575f36600319011261028b576020600654604051908152f35b3461028b57604036600319011261028b5761197c611d87565b50611985611e22565b5060206040515f8152f35b3461028b5761016036600319011261028b576119aa611d87565b506119b3611e22565b506119bc611d9d565b506064356001600160401b03811161028b576119dc903690600401611df5565b50503660e41161028b57366101641161028b5761001a6121d3565b3461028b57602036600319011261028b5761001a611a13611ea9565b611a1b6121d3565b6001600160a01b03165f81815260046020819052604090912001805460ff19169055612228565b3461028b5760a036600319011261028b576004356001600160401b03811161028b57611a72903690600401611df5565b60243563ffffffff811680910361028b5760443563ffffffff811680910361028b57606435916001600160401b03831680930361028b5760843563ffffffff811680910361028b576001546001600160a01b0316338190036116515750927fbc02911c4bfc30713d47e576c0ea7e852aaaedb81d58f5fcd99b232bcc213b089592859260a095611b03368688611f85565b6020815191012060405191611b1783611f2e565b83835260208084018681526040808601898152606087019485526001608088019081525f968752600585529190952095518654925167ffffffffffffffff1990931663ffffffff91909116179190921b67ffffffff000000001617845591519067ffffffffffffffff60401b84549163ffffffff60801b905160801b169260401b169073ffffffffffffffffffffffff000000000000000019161717825551151581549060ff891b90891b169060ff891b191617905560405196879560808752816080880152878701375f858501870152602085015260408401526060830152601f01601f19168101030190a1005b3461028b57606036600319011261028b57611c1f611d87565b611c27611e93565b6044356001600160a01b038116929083900361028b575f54916001600160a01b038316611c9357600180546001600160a01b0319166001600160a01b03929092169190911790556001600160e01b031990911660a09190911b67ffffffffffffffff60a01b1617175f55005b62dc149f60e41b5f5260045ffd5b3461028b57602036600319011261028b576004356001600160401b03811161028b57611cd1903690600401611df5565b6001546001600160a01b0316919033839003611d1557611cf392503691611f85565b80516020918201205f908152600590915260409020805460ff60a01b19169055005b82630b3dddb760e01b5f523360045260245260445ffd5b3461028b57602036600319011261028b57611d45611d87565b506001546040516001600160a01b039091168152602090f35b3461028b57602036600319011261028b57611d77611d87565b505f815260646020820152604090f35b600435906001600160401b038216820361028b57565b604435906001600160401b038216820361028b57565b602435906001600160401b038216820361028b57565b60a435906001600160401b038216820361028b57565b608435906001600160401b038216820361028b57565b9181601f8401121561028b578235916001600160401b03831161028b576020838186019501011161028b57565b6024359060ff8216820361028b57565b6044359060ff8216820361028b57565b90606060031983011261028b576004356001600160401b038116810361028b5791602435906001600160401b03821161028b57611e8191600401611df5565b909160443560ff8116810361028b5790565b602435906001600160a01b038216820361028b57565b600435906001600160a01b038216820361028b57565b606435906001600160a01b038216820361028b57565b359063ffffffff8216820361028b57565b3461028b57602036600319011261028b57611eff611d87565b506020604051308152f35b805180835260209291819084018484015e5f828201840152601f01601f1916010190565b60a081019081106001600160401b0382111761040557604052565b90601f801991011681019081106001600160401b0382111761040557604052565b6001600160401b03811161040557601f01601f191660200190565b929192611f9182611f6a565b91611f9f6040519384611f49565b82948184528183011161028b578281602093845f960137010152565b90604060031983011261028b576004356001600160a01b038116810361028b5791602435906001600160401b03821161028b57611ffa91600401611df5565b9091565b9181601f8401121561028b578235916001600160401b03831161028b576020808501948460051b01011161028b57565b90600182811c9216801561205c575b602083101461204857565b634e487b7160e01b5f52602260045260245ffd5b91607f169161203d565b5f92918154916120758361202e565b80835292600181169081156120ca575060011461209157505050565b5f9081526020812093945091925b8383106120b0575060209250010190565b60018160209294939454838587010152019101919061209f565b915050602093945060ff929192191683830152151560051b010190565b9080601f8301121561028b5781602061210293359101611f85565b90565b6001600160a01b039091169081156121cc576001600160401b03165f52600260205260405f2090604051808360208295549384815201905f5260205f20925f5b8181106121b357505061215a92500383611f49565b8151156121a1578151915f5b8381101561219957600581901b8201602001516001600160a01b0316831461219057600101612166565b50505050600190565b505050505f90565b6003546001600160a01b031614919050565b8454835260019485019487945060209093019201612145565b5050600190565b5f546001600160a01b0316338190036121e95750565b63032dd5e360e11b5f523360045260245260445ffd5b8054821015612214575f5260205f2001905f90565b634e487b7160e01b5f52603260045260245ffd5b5f818152600760205260409020548015612311575f1981018181116122fd576006545f198101919082116122fd578181036122af575b505050600654801561229b575f19016122788160066121ff565b8154905f199060031b1b191690556006555f5260076020525f6040812055600190565b634e487b7160e01b5f52603160045260245ffd5b6122e76122c06122d19360066121ff565b90549060031b1c92839260066121ff565b819391549060031b91821b915f19901b19161790565b90555f52600760205260405f20555f808061225e565b634e487b7160e01b5f52601160045260245ffd5b50505f90565b805f52600760205260405f2054155f1461236757600654600160401b811015610405576123506122d182600185940160065560066121ff565b9055600654905f52600760205260405f2055600190565b505f90565b6001810190825f528160205260405f2054155f146123b9578054600160401b811015610405576123a66122d18260018794018555846121ff565b905554915f5260205260405f2055600190565b5050505f90565b906123e457508051156123d557805190602001fd5b63d6bda27560e01b5f5260045ffd5b81511580612415575b6123f5575090565b639996b31560e01b5f9081526001600160a01b0391909116600452602490fd5b50803b156123ed56fe360894a13ba1a3210667c828492db98dca3e2076cc3735a920a3ca505d382bbcf0c57e16840df040f15088dc2f81fe391c3923bec73e23a9662efc9c229c6a00a2646970667358221220b64384570113c1693ce2ccd0a0828d6299a09ade86fb69102a07b03a0061aaf464736f6c634300081a0033","linkReferences":{}},"methodIdentifiers":{"MIN_OPERATOR_STAKE()":"d856433a","UPGRADE_INTERFACE_VERSION()":"ad3cb1cc","blueprintId()":"fe0b15e7","blueprintOwner()":"f8407662","canJoin(uint64,address)":"b47242e8","canLeave(uint64,address)":"e518de76","configureModel(string,uint32,uint32,uint64,uint32)":"13e77808","disableModel(string)":"0824bd46","getAggregationThreshold(uint64,uint8)":"25fcc64e","getExitConfig(uint64)":"d2672ed4","getHeartbeatInterval(uint64)":"0068080b","getHeartbeatThreshold(uint64)":"92cbb78e","getMinOperatorStake()":"54dce6c2","getModelConfig(string)":"c727472f","getNonPaymentTerminationPolicy(uint64)":"71e8e85d","getOperatorCount()":"1a4a7c61","getOperatorDimensions(address)":"2f26c96c","getOperatorPricing(address)":"1a74f8ae","getOperators()":"27a099d8","getRequiredResultCount(uint64,uint8)":"4c443e04","getSlashingWindow(uint64)":"3fdadfcc","initialize(address)":"c4d66de8","isOperatorActive(address)":"eb473533","modelConfigs(bytes32)":"4299b960","onAggregatedResult(uint64,uint8,uint64,bytes,uint256,uint256[2],uint256[4])":"158bb2eb","onApprove(address,uint64,uint8)":"b159eb34","onBlueprintCreated(uint64,address,address)":"0b6535d7","onExitCanceled(uint64,address)":"5440662c","onExitScheduled(uint64,address,uint64)":"e0559c63","onJobCall(uint64,uint8,uint64,bytes)":"9838caa3","onJobResult(uint64,uint8,uint64,address,bytes,bytes)":"c40c80d1","onOperatorJoined(uint64,address,uint16)":"9aa26a92","onOperatorLeft(uint64,address)":"965d231b","onRegister(address,bytes)":"67793cc6","onReject(address,uint64)":"c9cd4a18","onRequest(uint64,address,address[],bytes,uint64,address,uint256)":"c28cd812","onServiceInitialized(uint64,uint64,uint64,address,address[],uint64)":"82a1ece4","onServiceTermination(uint64,address)":"a24e8a90","onSlash(uint64,bytes,uint8)":"7e14b919","onUnappliedSlash(uint64,bytes,uint8)":"0881898f","onUnregister(address)":"151a4576","onUpdatePreferences(address,bytes)":"f58e2066","operatorCaps(address)":"cb110dc1","proxiableUUID()":"52d1902d","queryDeveloperPaymentAddress(uint64)":"08179f35","queryDisputeOrigin(uint64)":"14b4df4c","queryIsPaymentAssetAllowed(uint64,address)":"e390fcdb","querySlashingOrigin(uint64)":"74ceeb55","requiresAggregation(uint64,uint8)":"19ed5bb2","tangleCore()":"5a936dc6","tsUSD()":"45533359","upgradeToAndCall(address,bytes)":"4f1ef286"},"id":37}